S019000050726163746963612036204E75636C656F2E7372656308
S11300000C9434000C943E000C943E000C943E007E
S11300100C943E000C943E000C943E000C943E0064
S11300200C943E000C943E000C943E000C943E0054
S11300300C943E000C943E000C943E000C943E0044
S11300400C943E000C943E000C943E000C943E0034
S11300500C943E000C943E000C943E000C943E0024
S11300600C943E000C943E0011241FBECFEFD8E048
S1130070DEBFCDBF0E948B000C94AC000C9400003A
S11300801092C50087E68093C40088E08093C10085
S113009086E08093C20008959091C00095FFFCCF44
S11300A08093C6000895CF93DF9329B1C82F30E021
S11300B0082E02C0359527950A94E2F720FD28C042
S11300C02FE738E391E0215030409040E1F700C041
S11300D0000029B130E002C0359527958A95E2F7F2
S11300E020FD16C0862F0E944C0089B190E00C2E92
S11300F002C0959587950A94E2F780FFF6CF3FE713
S113010088E391E0315080409040E1F700C0000066
S1130110DF91CF9108958AB183708AB98BB18C6FC6
S11301208BB90E94400065E582E00E94530064E4BC
S113013083E00E94530062E584E00E9453006CE473
S113014085E00E94530061E486E00E94530062E46B
S10F015087E00E945300E7CFF894FFCF33
S9030000FC
